:02000002D0002C
:1040000000400D00406D0D00000006000C00050191
:0840100004014E040000000051
:1040180090660D0009480A49884208B505D0094A42
:10402800824202D0121A01F029FF0748074A0021EC
:10403800121A01F02EFF014808BD00BFF8E3032063
:10404800606C0D00B0E40320B0E40320F0E7032027
:1040580070B501F047FC074C074BE41AA40800258B
:104068001E46A54204D056F8253098470135F8E792
:1040780070BD00BF586C0D00206C0D0000F02EB80C
:1040880008B500F03DF8BDE8084001F0F9BB00F0C4
:1040980099BA00F097BA00F09DBA00F09BBA007880
:1040A800B0FA80F0400970470123037070470000A0
:1040B80010B514465AB9012000F038FEFF22104608
:1040C800214600F043FE044B01221A7010BD002067
:1040D800BDE8104000F02ABEB4E4032010B501F09A
:1040E8004DFB4FF4E13101F03DFB0023034A8020F2
:1040F8000021BDE8104000F0D1B900BFB9400D0063
:1041080030B5114C237885B0DBB101F037FB05469B
:1041180000F011FF0146684600F0CAFE00992846E3
:1041280000F0B2FD684600F04FFE01F027FB07499A
:1041380000F0BDFD00220649064800F03DFC0023C2
:10414800237005B030BD00BFB4E40320A4660D00A1
:10415800BC660D00CCE4032000F058B808B5024B4B
:104168001B689B68019308BD4802030008B5024B11
:104178001B681B69019308BD4802030008B5024B80
:104188001B685B69019308BD4802030008B5024B30
:104198001B681B6B019308BD4802030008B5024B5E
:1041A8001B685B6C019308BD4802030008B5024B0D
:1041B8001B68DB6C019308BD4802030008B5024B7D
:1041C8001B685B6D019308BD4802030008B5024BEC
:1041D8001B685B68019308BD1802030008B5024B11
:1041E8001B685B69019308BD1802030008B5024B00
:1041F8001B68DB69019308BD1802030008B5024B70
:104208001B689B6D019308BD1802030008B5024B9B
:104218001B681B68019308BD2C02030008B5024BFC
:104228001B681B69019308BD6C02030008B5024BAB
:104238001B685B69019308BD6C02030008B5024B5B
:104248001B689B69019308BD6C02030008B5024B0B
:104258001B685B6D019308BD6C02030008B5024B37
:104268001B689B6D019308BD6C02030008B5024BE7
:104278001B685B69019308BD6402030008B5024B23
:104288001B689B69019308BD6402030008B5024BD3
:104298001B681B6A019308BD6402030008B5024B42
:1042A8001B685B6A019308BD6402030008B5024BF2
:1042B8001B689B6A019308BD6402030008B5024BA2
:1042C8001B689B68019308BD6802030008B5024B90
:1042D8001B68DB68019308BD6802030008B5024B40
:1042E8001B685B68019308BD3802030008B5024BE0
:1042F8001B689B69019308BD3802030008B5024B8F
:104308001B68DB69019308BD3802030008B5024B3E
:104318001B68DB6A019308BD3802030008B5024B2D
:104328001B685B6B019308BD3802030008B5024B9C
:104338001B689B6B019308BD3802030008B5024B4C
:104348001B68DB69019308BD3002030008B5024B06
:104358001B681B68019308BD3C02030008B5024BAB
:104368001B68DB68019308BD3C02030008B5024BDB
:104378001B681B69019308BD3C02030008B5024B8A
:104388001B685B69019308BD3C02030008B5024B3A
:104398001B689B69019308BD3C02030008B5024BEA
:1043A8001B68DB69019308BD3C02030008B5024B9A
:1043B8001B689B6A019308BD3C02030008B5024BC9
:1043C8001B681B68019308BD4C02030008B5024B2B
:1043D8001B685B68019308BD4C02030008B5024BDB
:1043E8001B681B69019308BD4C02030008B5024B0A
:1043F8001B685B69019308BD4C02030008B5024BBA
:104408001B689B69019308BD4C02030008B5024B69
:104418001B68DB69019308BD4C02030008B5024B19
:104428001B681B6A019308BD4C02030008B5024BC8
:104438001B685B68019308BD6002030008B5024B66
:104448001B689B68019308BD6002030008B5024B16
:104458001B68DB68019308BD6002030008B5024BC6
:104468001B689B69019308BD6002030008B5024BF5
:104478001B68DB69019308BD6002030008B5024BA5
:104488001B681B68019308BD2002030008B5024B96
:104498001B685B68019308BD2002030008B5024B46
:1044A8001B681B6A019308BD2002030008B5024B74
:1044B8001B689B6D019308BD2002030008B5034BE0
:1044C8001B68D3F88830019308BD00002002030060
:1044D80008B5034B1B68D3F89430019308BD00005E
:1044E8002002030008B5024B1B689B68019308BDB6
:1044F8004402030008B5024B1B685B69019308BDC1
:104508004402030008B5024B1B681B6B019308BDEE
:104518004402030008B5024B1B68DB6B019308BD1E
:104528004402030008B5024B1B685B68019308BD91
:104538004002030008B5024B1B689B68019308BD45
:104548004002030008B5024B1B68DB68019308BDF5
:104558004002030008B5024B1B681B69019308BDA4
:104568004002030008B5024B1B685B69019308BD54
:104578004002030008B5024B1B689B69019308BD04
:104588004002030008B5024B1B68DB69019308BDB4
:104598004002030008B5024B1B681B6A019308BD63
:1045A8004002030008B5024B1B681B6B019308BD52
:1045B8004002030008B5024B1B685B6B019308BD02
:1045C8004002030008B5024B1B681B68019308BD35
:1045D8001C02030008B5024B1B685B68019308BD09
:1045E8001C02030008B5024B1B689B68019308BDB9
:1045F8001C02030008B5024B1B681B69019308BD28
:104608001C02030008B5024B1B689B69019308BD97
:104618001C02030008B5024B1B681B6B019308BD05
:104628001C02030010B58368044613B10322014637
:104638009847204610BD002211464068FFF7AABFE0
:10464800002211464068FFF7B5BF00224068FFF717
:10465800A9BF002281F001014068FFF793BF002342
:104668001A4619464068FFF785BF00231A461946BF
:104678004068FFF777BF002211464068FFF76ABF1E
:10468800002211464068FFF755BF0022022140680A
:10469800FFF758BF00231A464068FFF743BF0000E2
:1046A800024B03225A60024A1A607047B8E403209A
:1046B800D0660D00704710B50446FFF7ECFC2046A5
:1046C80010BDF0B5037D062B8DB00E4600F1040732
:1046D8004FF0000402D000F1080518E00CAD39468F
:1046E80005F8304D2F232A460A20FFF7BFFD28463C
:1046F80001F012FC33680246DB68294630469847C9
:104708000FE024B12E21304600F0C2FA044415F817
:10471800011D0A22304600F001FBBD420444F0D1DD
:1047280020460DB0F0BD000010B5054B044611221F
:1047380040F8043B002101F0ACFB204610BD00BF4F
:1047480004670D000346074A10B543F8042B01F12E
:10475800100251F8044B43F8044B9142F9D10A78FE
:104768001A7010BD04670D00037D042B01D1406849
:1047780008E0062B0AD1436853B1836843B1C36884
:1047880033B10069003018BF01207047002070471E
:104798001846704710B59DF8084044EA032343EAD9
:1047A800024242EA016104234160037510BD37B536
:1047B8000D788B784A78C97800912946FFF7EAFF87
:1047C80003B030BD0068FFF7F1BC0000014B024A9E
:1047D8001A607047C0E40320C5670D000022114627
:1047E8004068FFF7D7BE002211464068FFF7E2BED7
:1047F80000224068FFF7D6BE002281F00101406820
:10480800FFF7C0BE00231A4619464068FFF7B2BE3C
:1048180000231A4619464068FFF7A4BE0022114635
:104828004068FFF797BE002211464068FFF782BE36
:10483800002202214068FFF785BE00231A4640681F
:10484800FFF770BE38B5054678B1046844B1A3686F
:104858001BB103222146204698472046FFF71BFC40
:104868002846BDE83840FFF716BC38BD10B10368CC
:104878005B681847704710B503680446BBB15868B1
:10488800FFF76CFC78B923685A7C12B95868FFF7AF
:104898006DFC23685868FFF771FC206800232360CB
:1048A80028B1FFF7CFFF206808B1FFF7CBFF2046FC
:1048B80010BD000038B50B4B03600446D0F8CC019E
:1048C80008B1FFF7EAFBD4F8C4512DB12846FFF729
:1048D800D2FF2846FFF7DFFBA06808B1FFF7C6FF45
:1048E800204638BDF8670D0030B58DB0044611225A
:1048F800002101A801F0CDFA062301AA09498DF883
:1049080014300A20FFF7BAFC07AD01A906A8FFF783
:1049180019FF0FCD04340FC42B68237000200DB08D
:1049280030BD00BF24680D0030B5044689B000F5DD
:10493800E070FFF747FF236883BB4C20FFF7A7FB16
:10494800054608B100F0AAFD2068256008B1FFF708
:104958008DFF206820B300224FF49A6100F0CDFD4E
:1049680008A9002501F8195D1148FFF757FC2068D0
:104978009DF80720036849F269011B6A984702A855
:10498800FFF7D2FE02A8FFF7AFFF002804DB02A959
:10499800206800F01CFE04E0054602E0002500E067
:1049A800044DD4F8C001FFF709FC284609B030BD12
:1049B80031680D00FCFEFFFF2DE9F04705468CB07D
:1049C80016460F4609B10B780BB9354C64E008461A
:1049D80001F0A2FA8046002E5CD0304601F09CFA25
:1049E800441C08F102032344B3F59A6F4FD805F528
:1049F800E070FFF7E7FE2846FFF796FF002840DB48
:104A08006846FFF791FE6846FFF76EFF002838DB1F
:104A1800D5F800A0DAF800300DF1040CD3F838907E
:104A2800204B0693BCE80F000DF11C0EAEE80F00FA
:104A3800DCF800308EF8003049F2690206A95046C9
:104A4800C84700281DDB002328688DF81830036844
:104A58000122DB6806A998472868036808F1010263
:104A6800DB68394698472CB1286803682246DB681A
:104A780031469847286803681B6C984700EAE07439
:104A880000E00446D5F8C001FFF798FB04E06FF09A
:104A9800BD0401E03446A4E720460CB0BDE8F08729
:104AA800F2FEFFFF04670D0038B50D4C0D4B236077
:104AB8000025022304F5E4706360A560C4F8C451BE
:104AC800C4F8C851FFF76AFB074BC4F8CC51236000
:104AD8002046064A0649BDE8384000F03FBF00BFFF
:104AE800C4E403205C680D00F8670D00B0E40320FF
:104AF800BD480D0000231A464068FFF713BD002289
:104B080002214068FFF71EBD002211464068FFF7EA
:104B180011BD002211464068FFF71CBD00231A464C
:104B280019464068FFF71EBD00231A46194640681B
:104B3800FFF720BD002281F001014068FFF722BD88
:104B480000224068FFF72EBD002211464068FFF79B
:104B580031BD002211464068FFF71CBD2DE9F04326
:104B6800002495B016460D460746FFF7DDFD2146A1
:104B780020220CA8009401F08CF940230C932146C4
:104B88006B460CAA3046FFF7A1FB0446002844D127
:104B9800024601216868FFF7DDFC022180462246B3
:104BA8006868FFF7D7FC009E81462146002E34D066
:104BB800002932D17368022B02D00A2B09D02AE0CF
:104BC800B8F1000F27D0716938460431FFF7EFFDBF
:104BD80020E0B9F1000F1ED07469112201A801F07C
:104BE80058F906238DF8143001AD04F10803183480
:104BF800186859682A4603C20833A3421546F7D1F4
:104C080001A906A807ADFFF79DFD0FCD3C1D0FC4F8
:104C18002B6823700121F669C8E70098FFF74EFB5F
:104C2800384615B0BDE8F083024B034A1A600022EB
:104C38005A60704794E603205C680D00F8B5064694
:104C48000D468F180024BD420CD0336815F8011B9F
:104C58009B6830469847002801DB0444F3E7002CA2
:104C680008BF04462046F8BD70B505460C46084600
:104C780049B101F051F92B68024621462846DB6804
:104C8800BDE87040184770BD08B5FFF7EDFF08BDD7
:104C980003689B68184738B50D210546FFF7F8FFEC
:104CA8000A2104462846FFF7F3FF204438BD38B5EB
:104CB8000546FFF7D9FF04462846FFF7ECFF2044D6
:104CC80038BD30B58BB00B4600218DF82410012A71
:104CD80098BF0A220DF12304B3FBF2F505FB12334A
:104CE80003F0FF03092B94BF30333733DBB221467F
:104CF80004F801392B46002DEED1FFF7B5FF0BB0B4
:104D080030BD10B42AB903685DF8044B9B68C9B27A
:104D18001847D2B25DF8044BFFF7D3BFFFF7F1BFD6
:104D280010B50446FFF77EFC204610BD10B50446BA
:104D3800FFF794FB844208D01CB1BDE81040FFF790
:104D48007DBBBDE81040FFF781BB10BD70B50546BF
:104D58000E461446FFF782FB50B144EA062040EAAB
:104D68000540FFF763FBE720BDE87040FFF77EBB17
:104D780070BD00000348044A04490023836000F022
:104D8800EDBD00BF9CE60320B0E40320294D0D00D3
:104D9800704710B50446FFF77EF9204610BD0000A5
:104DA80070B5084B0360044600250E4640F80C5FBA
:104DB800FFF7ECF930462671FFF7C0FAA5602046E8
:104DC80070BD00BF90680D0010B504460068FFF77D
:104DD80001FC204610BD10B50446006808B1FFF775
:104DE800F9FB00232360A360636010BD38B5044657
:104DF8000D4600680131FFF7F5FB10B184E821008A
:104E0800012038BD10B50368044613B143688B42CE
:104E180007D22046FFF7EAFF20B1A3680BB9226842
:104E28001370012010BD70B50E4611460446154694
:104E3800FFF7E8FF18B92046FFF7CDFF09E02A463B
:104E48003146A560206801F019F82268A36800219E
:104E5800D154204670BD38B5002304460360436032
:104E6800836003730D4639B1084601F055F82946A9
:104E780002462046FFF7D7FF204638BD044B0020E6
:104E88004FF6FF72187058809A80FFF7FFBA00BF7C
:104E9800ACE6032008B50020FFF734FB28B1FFF784
:104EA80029FB80F00100C0B208BD012008BD000048
:104EB80037B50E4B1B6819440D4B1B68044602A8F6
:104EC800194440F8041D00F0E1FE00F095FE054687
:104ED80001F022F82844002300F8013C2946204626
:104EE800FFF7B9FF204603B030BD00BFBCE6032082
:104EF800B8E6032010B50020FFF780F9044668B92A
:104F0800FFF7BCFA01280BD12046FFF7CFFA38B9D2
:104F1800FFF7C0FF30B9FFF7E5FAF9E7012010BD48
:104F2800002010BDFFF7B6FF0020FFF767F900303B
:104F380018BF012010BD08B5FFF7DCFFBDE8084029
:104F4800FFF754B9024B1A68024B1A60704700BF4A
:104F5800F8E30320B4E6032010B40468246BA446E5
:104F68005DF8044B604703689B6C1847808E704758
:104F7800028FC08E101A704713B502AB026803F88F
:104F8800011DD46819460122A04702B010BD10B512
:104F980003681B690446984728B1E38EE26B591CE5
:104FA800E186D05C10BD4FF0FF3010BD10B503682E
:104FB8001B690446984718B1E38EE26BD05C10BDBC
:104FC8004FF0FF3010BD704710B403460846DC6B45
:104FD800D98E1A8F0368521ADB6821445DF8044B96
:104FE8001847A0F11000FFF7EFBFF0B503688DB0C8
:104FF8001C265B6A04460F4615469847012332462D
:10500800002105A8029300F044FF8DF8146038468B
:105018000A268DF81560FFF749F91122ADF8160038
:1050280002213046FFF782F90028606124DB042260
:10503800009202AB40F6FF71FFF758F9E0B995B15D
:105048000390ADF8100003A9E8B2FFF7EFF898B99C
:105058000623009341F20B0203AB40F6FF7160692F
:10506800FFF744F940B91C2205A96069FFF736F932
:1050780010B96564012004E0236820465B6A9847FC
:1050880000200DB0F0BD10B504464069002801DBD2
:10509800FFF734F94FF0FF3363610023E38623877A
:1050A80010BD38B5C36B0546C08E13B12C6C241ADD
:1050B80000E01C46944228BF14462246184400F0DB
:1050C800DDFEEB8E2344EB86204638BD70B50368C1
:1050D8001B6904460E461546984788B12368204642
:1050E8001B699847E38EE16B8542A8BF05461944C2
:1050F8002A46304600F0C2FEE38E2B44E38601E0E8
:105108004FF0FF35284670BD70B50446054B44F88E
:10511800043B01F1200506460FCD0FC42B68237010
:10512800304670BD04670D00F0B59446026889B03A
:10513800976A0A4A02921D1D8E4606460FCD03AC99
:105148000FC42B682370BDF838300093624602AB59
:1051580071463046B84709B0F0BD00BF04670D007E
:10516800F0B50368B0F836E09F6A0D4B89B000F1DE
:105178002006044602930FCE03AD0FC533682B708B
:10518800A38E0093724602ABE16B2046B8472368B2
:105198000546DB6920469847284609B0F0BD00BFA0
:1051A80004670D00F0B54378022B8DB005460C4618
:1051B800174601D1011D33E00A2B35D111220021F8
:1051C80001A800F066FEAB6843B9EB6833B94FF647
:1051D800FF702E69FFF75AF886421FD005F10803C1
:1051E80001AE05F1180E18685968324603C2083333
:1051F80073451646F7D1062301A906A807AE8DF810
:105208001430FFF79FFA0FCE04340FC433682370AD
:1052180057B16888FFF742F8388005E005F11401B6
:105228002046FFF7C4FAF3E70DB0F0BD2DE9F041D1
:105238008EB00EAB002506461746084643F8345D87
:105248002A462946FFF742F800281FDB019BFBB1DD
:105258005B69EBB102A8FFF767FA019B2A46586918
:1052680002A9FFF79FFF02A8FFF77EFA80B1336813
:1052780003ADD3F838800B4B08930FCD09AC0FC49E
:105288002B6823703A4608A93046C047044601E017
:105298004FF0FF340198FFF711F820460EB0BDE833
:1052A800F08100BF04670D002DE9F047D0F81480A5
:1052B800B8F1000F8CB005460C461746994600DB3E
:1052C80011B94FF0FF3035E04FF01C0A05AE5246D9
:1052D8000021304600F0DDFDCDF808A0B9F1000F3F
:1052E80014D04FF47A72B9FBF2F1039102FB1191D9
:1052F8004A4308230492009341F2060203AB40F6A6
:10530800FF714046FEF7F2FF08B113E0082002AB38
:1053180001932146034600963A466869FEF7F6FF70
:10532800041E06DB05F1340205F11C013046FFF7C7
:1053380039FF20460CB0BDE8F08738B5054614465D
:105348002B7D062B084611D11C2313700A2353709A
:10535800FEF7ACFF083424F8060C2B1D143553F85F
:10536800042B44F8042BAB42F9D138BD042B0AD1E5
:105378001023137002235370FEF798FF608068684B
:10538800FEF784FF606038BD2DE9F0438BB003ACB5
:105398001C25994606460F46904600212A46204677
:1053A80000F077FD2246BDF848104846FFF7C5FFD4
:1053B8009DF80D3043B18DE8300000234246394650
:1053C8007069FEF7ABFF01E04FF0FF300BB0BDE8AE
:1053D800F083F0B591B00C4606460021154609A8A1
:1053E8001C221F4600F055FD09AA00212046FFF7A0
:1053F800A4FF9DF82530022B2ED1002305930A9B8C
:105408000493DDB102A92846FEF718FFB0B910A928
:1054180041F8340D0298FEF719FF60B9039B53B1A8
:10542800DA6812685178022903D152680AB10592E4
:1054380001E01B68F3E70398FEF710FF002F4FF019
:105448000803009318BF032204AB08BF04220021FD
:105458003046FEF74BFF1EE00A2B1AD104AC14228B
:105468000021204600F015FD0BAB0FCB002F84E880
:105478000F004FF01403009318BF0C22234608BFF7
:105488000D22292130460895FEF730FF00EAE0702A
:1054980001E04FF0FF3011B0F0BD000038B54FF417
:1054A8007A7383600B4B03F108026C3300250361A8
:1054B8004FF0FF3304464560026043611C30FFF73C
:1054C80033F94FF40073E5862587E5632364656443
:1054D800204638BDC0680D0010B590F84830044625
:1054E8001BB1C06B08B1FEF7D6FD0023E36384F857
:1054F80048302364E386238710BD70B504461646FA
:105508000D46FFF7E9FF0023E66323643EB935B192
:105518002846FEF7BEFD0123E06384F84830E36BBC
:1055280003B12564206C003018BF012070BDF8B5A8
:105538001746C26B05460C461AB9016C09B1FFF74C
:10554800DCFF04340FCC05F120060FC62368337046
:105558000023AF86EB862B87286CF8BD70B5C26B2D
:1055680004460E461AB9016C09B1FFF7C6FFE16B94
:105578000022E286228749B1226C3AB1236820468C
:105588001D6B3346A8470028C8BF208723682046DC
:105598001B69BDE87040184710B5074B03F10802B6
:1055A8006C33044602600361FFF76DFD2046FFF788
:1055B80093FF204610BD00BFC0680D0010B504461B
:1055C800FFF7EAFF2046FEF766FD204610BD0246BB
:1055D8004069002804DB012392F84420FFF7F9BE54
:1055E8004FF0FF307047704741747047007CFEF7FA
:1055F800DDBE007CFEF7BABE007CFEF7C7BE007CAD
:10560800FEF7BCBE007CFEF7C9BE10B50446FEF727
:1056180042FD204610BD70B5457C04460E4625B9AE
:10562800007CFEF7C3FE002805DD3146207CBDE87E
:105638007040FEF793BE284670BD000010B50446C2
:1056480008461146002262604FF47A72A260054A49
:1056580022600122207462741A46FEF777FE204603
:1056680010BD00BF38690D00F8B5194C25684DB953
:105678008420FEF70CFD064618B18422294600F066
:1056880008FC2660134D2E684EB98420FEF7FFFCF7
:10569800074618B18422314600F0FBFB2F600E4FFD
:1056A800396811F0010611D13846FEF7F8FC68B1E7
:1056B80022682B6809483146FFF7C0FF3846FEF7D5
:1056C800F3FC074A0749054800F048F90348F8BDC4
:1056D800DCE60320D4E60320D8E60320C0E6032056
:1056E800B0E40320EF550D00417470477047002166
:1056F800007CFEF783BE0121007CFEF77FBE007CA4
:10570800FEF774BE007CFEF769BE38B50446007C1F
:105718000D46FEF76BFE002801DC607C20B12946AF
:10572800207CFEF773FE012038BD007CFEF776BEB4
:1057380010B50446FEF7AFFC204610BD10B5044670
:10574800002363604FF47A73A360054B2360012341
:105758000846217463741146FEF730FE204610BDDA
:1057680068690D000022007CFEF730BE10B51422D7
:105778000446002100F08DFB204610BD30B50E4DCB
:1057880087B001A8FFF7F2FF296811F0010410D1D2
:105798002846FEF784FC60B101AA21460748FFF7B6
:1057A800CDFF2846FEF780FC054A0649034800F06D
:1057B800D5F8024807B030BDE0E60320E4E6032050
:1057C800B0E40320F5560D00002211464068FEF7AC
:1057D800C1BE002211464068FEF7DCBE0022114619
:1057E8004068FEF7E7BE00224068FEF7DBBE0022F5
:1057F80081F001014068FEF7C5BE00231A4619462C
:105808004068FEF7B7BE00231A4619464068FEF7FF
:10581800A9BE002211464068FEF78CBE0022022174
:105828004068FEF78FBE00231A464068FEF77ABE2E
:10583800024B04225A60024A1A607047F8E60320B5
:1058480098690D0008B50C4B33B1FFF797FF036853
:105858001B699847002809DC084B63B1FFF704FF70
:1058680003681B699847002803DC08BDAFF3008074
:10587800F2E7AFF3008008BD000000000000000060
:1058880008B5FFF7DFFFFEF7A9FC014B186008BD5C
:1058980004E7032007B5002300931A466FF0770149
:1058A800FEF716FE03B05DF804FB000007B5438859
:1058B8000A2B08D0502B09D1094B1B683BB103B008
:1058C8005DF804EB1847FFF7E5FF06E000230093B7
:1058D8001A466FF07701FEF7FBFD03B05DF804FB95
:1058E80000E7032010B5FEF771FC044600F0DAFA71
:1058F800074B13B12046AFF3008000210448FEF7A0
:1059080009FE00210348BDE81040FEF7D7BD00BFDF
:1059180000000000B5580D0070B50C4C0C4E0D4D34
:1059280000212046FFF73CFA20460B4C3246294618
:1059380000F014F801212046FFF732FA32462946D2
:105948002046BDE8704000F009B800BF08E7032012
:10595800B0E40320994D0D0018E703200B460146DB
:10596800184600F085B90000244B1A68D0075CBFC0
:1059780001221A60224B1A68D1075CBF01221A6003
:10598800204B1A68D2075CBF01221A601E4B1A68A6
:10599800D0075CBF01221A601C4B1A68D1075CBF94
:1059A80001221A601A4B1A68D2075CBF01221A60DA
:1059B800184B1A68D0075CBF01221A60164B1A6888
:1059C800D1075CBF01221A60144B1A68D2075CBF6A
:1059D80001221A60124B1A68D0075CBF01221A60B4
:1059E800104B1A68D1075CBF01221A600E4B1A6867
:1059F800D2075CBF01221A60704700BF54E703203A
:105A080050E703204CE7032048E7032044E703203E
:105A180040E703203CE7032038E7032034E703206E
:105A280030E703202CE7032028E70320184B1A68E7
:105A3800D1075CBF01221A60164B1A68D2075CBFF7
:105A480001221A60144B1A68D0075CBF01221A6041
:105A5800124B1A68D1075CBF01221A60104B1A68F2
:105A6800D2075CBF01221A600E4B1A68D0075CBFD0
:105A780001221A600C4B1A68D1075CBF01221A6018
:105A88000A4B1A68D2075CBF01221A60704700BF30
:105A980074E7032070E703206CE7032068E703201E
:105AA80064E7032060E703205CE7032058E703204E
:105AB800184B1A68D1075CBF01221A60164B1A6886
:105AC800D2075CBF01221A60144B1A68D0075CBF6A
:105AD80001221A60124B1A68D1075CBF01221A60B2
:105AE800104B1A68D2075CBF01221A600E4B1A6865
:105AF800D0075CBF01221A600C4B1A68D1075CBF43
:105B080001221A600A4B1A68D2075CBF01221A6088
:105B1800704700BF94E7032090E703208CE7032039
:105B280088E7032084E7032080E703207CE703203D
:105B380078E70320244B1A68D0075CBF01221A605B
:105B4800224B1A68D1075CBF01221A60204B1A68E1
:105B5800D2075CBF01221A601E4B1A68D0075CBFCF
:105B680001221A601C4B1A68D1075CBF01221A6017
:105B78001A4B1A68D2075CBF01221A60184B1A68C0
:105B8800D0075CBF01221A60164B1A68D1075CBFA8
:105B980001221A60144B1A68D2075CBF01221A60EE
:105BA800124B1A68D0075CBF01221A60104B1A68A2
:105BB800D1075CBF01221A600E4B1A68D2075CBF7E
:105BC80001221A60704700BFC4E70320C0E7032022
:105BD800BCE70320B8E70320B4E70320B0E70320BD
:105BE800ACE70320A8E70320A4E70320A0E70320ED
:105BF8009CE7032098E70320094B70B51C68256CC7
:105C080006463DB91A20FEF7DDFC1A222064294613
:105C180000F03FF9216C3046BDE8704000F002B852
:105C280060E4032010B50C4641690369826986B0B7
:105C380001F26C71049101680391416802918168D5
:105C48000191C1680091074903EB43030B440649DE
:105C580002EB42020A4420460449FEF7CBFC2046E8
:105C680006B010BDD9690D00C4690D00FD690D00AD
:105C780010B5054C13462CB10A4601460220AFF375
:105C8800008010BD204610BD0000000038B5074B4D
:105C98001C68E36B05461BB92420FEF793FCE06300
:105CA800E16B2846BDE8384000F002B860E4032004
:105CB8002DE9F0410C46804600F048FC2146074695
:105CC800404600F047FC466906F26C76B307044686
:105CD80005D1642296FBF2F302FB13634BB94FF430
:105CE800C87596FBF5F305FB1365B5FA85F35B09F3
:105CF80000E001235F4A302505FB032500F05AFA2E
:105D080000F05AFA5C4B1B68F3B17B689E4205D1E0
:105D18003968D8F80030FA6941B90AE0304600F02D
:105D2800A1F90028F4D14FF0FF330DE0934208DBCE
:105D380001E0934207DABA6B9342ACBF0023012318
:105D480002E0002300E001232362236A012B0CBF39
:105D5800F96B396A4FF461633C2091FBF3F603FB5E
:105D68001613616893FBF0F200FB12302368891A5E
:105D7800A26861601B1A921B3B2B2360A26003DDA3
:105D8800013161603C3B04E0002B03DA01396160BA
:105D98003C33236063683B2B03DD0132A2603C3B4C
:105DA80004E0002B03DA013AA2603C336360A36885
:105DB800172B22DDE2690132E261A2690132062A6B
:105DC800C8BF0022A261E268183B0132A3602369C0
:105DD800E26055F823108A4246DD01330C2B0CBFD4
:105DE80063692361A2EB0102E26001BF0133002273
:105DF8002261636108BFE26136E0002B34DAE269B0
:105E0800013AE261A269013A48BF0622A261E2684A
:105E18001833013AE260A36032BB2369013B01D425
:105E280023611DE00B23236163695A1E12F0030FDF
:105E3800626103F26B7305D1642193FBF1F201FBFC
:105E480012324AB94FF4C87193FBF1F201FB1233D5
:105E5800B3FA83F35B0900E0012303F5B673E3614A
:105E6800236955F82330E36000F0A5F92046BDE822
:105E7800F08100BF846B0D00E4E7032010B5431EDA
:105E88000A44914204D011F8014B03F8014FF8E796
:105E980010BD02440346934202D003F8011BFAE7FF
:105EA8007047000038B5124B1C68A36B0546D3B980
:105EB8001820FEF787FB43F20E33A06303804AF6EF
:105EC800CD33438041F2342383804EF26D63C38027
:105ED8004DF6EC630381052343810B238381012263
:105EE8000023C0E90423A36B00221D615A6138BD59
:105EF80060E4032010F8012B11F8013B012A28BFA8
:105F08009A42F7D0D01A7047034611F8012B03F8CC
:105F1800012B002AF9D17047034613F8012B002AF8
:105F2800FBD1181A0138704730B582B1451E0139C6
:105F380015F8013F11F8014FA34206D1EC43144470
:105F4800E04201D0002BF3D11C46181B30BD10468F
:105F580030BD00002DE9F04780463C48D0F800905D
:105F68000E46354615F8014B09EB0400407800F061
:105F7800080000F0FF0708B12E46F2E72D2C03D1E8
:105F8800B51C7478012703E02B2C04BF7478B51C6A
:105F980013B1102B0AD153E0302C4FD1287800F0E0
:105FA800DF00582845D16C78102302354FF0FF3CAC
:105FB8000026BCFBF3FC03FB0CFA6FEA0A0A304626
:105FC80009EB040E9EF801E01EF0040F01D0303CEE
:105FD8000BE01EF0030E1AD0BEF1010F0CBF4FF0FC
:105FE800370E4FF0570ECEEB0404A3420FDD002E00
:105FF80008DB604506D801D1544503DC03FB0040AB
:10600800012601E04FF0FF3615F8014BD8E7002EC6
:1060180007DA2223C8F800304FF0FF302AB9BDE86C
:10602800F08707B1404272B106B1691E1160BDE840
:10603800F0873024002BB9D10823B7E70A23B5E746
:10604800302CABD0B2E7BDE8F08700BFFCE30320FB
:1060580013460A46014602480068FFF77BBF00BFA7
:1060680060E403202DE9F74F044600F06FFA40F290
:10607800B1739C4240F396806FF4F663E318A4F280
:10608800B2729B1040F26D1505FB0235A4F26D72D9
:106098006FF0630392FBF3F36FF4C8622B44A51807
:1060A8004FF4C87295FBF2F51D44642394FBF2F794
:1060B80094FBF3F602FB174703FB164600F138037F
:1060C800B7FA87FE019304F0030344604FEA5E1EAB
:1060D800014600934FF0070C0B7A4A2B0ED14B69FF
:1060E800009AEC1802B906B927B93B2BD4BF002394
:1060F800012300E000232344013B3FE0442B02D16D
:106108004B692B443AE0009B2BB9002E0CBFF0469C
:106118004FF0010800E0F046244BCC68302202FB27
:106128000838A8F1040AA9460123A34204DA5AF858
:1061380004BF0133D944F8E709F1040393FBFCFBDE
:10614800CBEBCB0A012CCAEB030A4B69B8BF01247D
:1061580004F18044B3EB0A0A0B6904F1FF3403F13C
:10616800FF3348BF0AF1070AC3EBC30358F82440BA
:106178005344A34201DB073BFBE74B448C690C4AC1
:1061880002FB03430C6A234441F81C3F019B9942DC
:10619800A2D1C369826B9342ACBF00230123036081
:1061A800012000E0002003B0BDE8F08F846B0D00F3
:1061B8008051010070477047014B186800F002B821
:1061C80060E403202DE9F04F8DB0074600F0BEF9DA
:1061D800B049B14E0446384600F0B0F9054660B9FA
:1061E800AE4BAF4A1860AF4B1860AF4B30681A60BF
:1061F8005A60FEF7EFF9356048E1316879B93068DF
:10620800FEF7E8F92846FFF787FE411C3846FEF7F7
:1062180001FA306048B12946FFF776FE05E0FFF73E
:1062280069FE002800F03281E9E72B789F4AA049EF
:106238003A2B08BF01350AAE33462846FEF7E2F985
:10624800002840F323810A9BEF18EB5C2D2B03D128
:1062580001374FF0FF3503E02B2B08BF013701252D
:106268000DF1200A0DF11E0B4FF000080396CDF832
:1062780008A00196CDF800B0334607AA8D49ADF8BD
:106288001E803846ADF82080FEF7BCF9404540F343
:10629800FD80BDF81E20BDF82030DFF824923C2197
:1062A80001FB0233BDF81C204FF4616101FB02338E
:1062B8005D4325627C4D7D4B2B600A9B7C491F44C6
:1062C8004A4633463846FEF79DF9404508DC2B68B8
:1062D8006B60724B226A1A60724BC3F80080D5E07B
:1062E8000A9BC5F80490FD18FB5C2D2B03D10135E2
:1062F8004FF0FF3703E02B2B08BF013501270023A0
:10630800ADF81C30ADF81E30ADF820300A93039676
:10631800CDF808A00196CDF800B0334607AA654924
:106328002846FEF76FF9002804DC236AA3F56163A9
:10633800E3630EE0BDF81E20BDF820303C2101FBD0
:106348000233BDF81C204FF4616101FB02335F4347
:10635800E7630A9B27461D444FF000092B782C2B36
:1063680008BF013595F80080B8F14D0F26D10DF121
:106378002603029309AB00930396019633460DF169
:1063880022024D492846FEF73DF903287ED1BDF883
:1063980022104B1E0B2B79D8BDF82420531E042B3A
:1063A80074D8BDF82630062B70D887F80880F960B5
:1063B8003A617B610A9B05EB03082AE0B8F14A0FB2
:1063C80006BF0135434644230A220BA928460593F4
:1063D800FFF73EFEDDF82C80ADF826004545059B0D
:1063E80014D14D23B9F1000F07D123720323E360C1
:1063F80002232361C4F814900BE084F824300B23A3
:10640800A3620123E3620023236302E080B23B72AC
:1064180078610223ADF81C300023ADF81E30ADF8CA
:1064280020300A9398F800302F2B0BD10396CDF823
:1064380008A00196CDF800B0334607AA1F49404688
:10644800FEF7E0F8BDF81E20BDF820303C2101FB26
:106458000233BDF81C204FF4616101FB0233BB61BC
:106468000A9D09F10109B9F1020F454407F11C071A
:106478007FF474AF6068FFF7F5FD084B226A1A6075
:10648800E36B9B1A074A18BF012313600DB0BDE8E0
:10649800F08F00BFE46B0D00E0E70320E8E703207E
:1064A800E76B0D00E4E7032064E40320D3E703204F
:1064B800EB6B0D000E6C0D00FA6B0D000D6C0D00F2
:1064C800C8E703202DE9F84F07468B46904600F0B1
:1064D800D9F8194B1D689A463DB15C46234613F816
:1064E800012B42B13D2A1C46F8D1384600F0CBF8C2
:1064F8000020BDE8F88FCBEB0404A94659F8040B3B
:106508000028F2D022465946FFF70EFD88B959F8FF
:10651800043C1E191B5D3D2B0BD1DAF80030ED1A37
:10652800AD103846C8F8005000F0ADF8701CBDE852
:10653800F88F4D46E1E700BFACE4032007B501AA98
:10654800FFF7C0FF03B05DF804FB00000048704788
:106558006CE403200268474BF0B592FBF3F403FBAD
:106568001422002ABCBF02F5A83202F5C0724FF40B
:10657800616004F52F2492FBF0F300FB13224FF027
:106588003C00ACBF04F66C2404F66B248B6092FBD1
:10659800F0F300FB13224B600A600723E21C92FB16
:1065A800F3F3C3EBC303D31A8B61334B334D94FB23
:1065B800F5F503FB054448F6AC62B4FBF2F222445D
:1065C80040F2B457B4FBF7F3D21A2D48B4FBF0F0FD
:1065D80048F69466131AB3FBF6F6344440F26D128B
:1065E800B3FBF2F0B3FBF7F3E31A02FB1033992481
:1065F80003EB83020232B2FBF4F20A2A04FB02F430
:1066080004F102064FF00504B6FBF4F434BF022689
:106618006FF0090616444FF4C87202FB05055F1CAB
:10662800012E98BF0135B3F5997FA7EB040702D374
:10663800A3F5997214E0820705D16424B0FBF4F243
:1066480004FB12024AB94FF4C872B0FBF2F402FB21
:106658001400B0FA80F2520900E001223B331A44D8
:10666800A5F26C750023CA614D610E61CF600B62A3
:106678000846F0BD805101004FC5FDFFB13A020048
:10668800B03A0200704770471D400D0059400D0098
:1066980085400D0089400D00000000003A2050752B
:1066A800626C697368696E67204D6573682045760A
:1066B800656E740067726F75702D6576656E74000F
:1066C80000000000000000009D460D0093460D00EC
:1066D80089460D007F460D0073460D0067460D0084
:1066E8005B460D0053460D0049460D003F460D0020
:1066F800654B0D000000000000000000CB460D00B7
:10670800BD460D00BF460D0066006C6E00666E004B
:10671800636F64650064657461696C000D0A002527
:106728003031307520005D20002C200028293A20C7
:1067380000205B00636F6465203D200025690064CC
:10674800657461696C73203D200062617564005353
:10675800657269616C0053657269616C31007479A6
:10676800706500706172616D00636D64006964003A
:10677800686E64007374726D0066696C74006C7680
:106788006C0061646448616E646C65720072656D6A
:106798006F766548616E646C657200656E756D48EC
:1067A800616E646C657273004A534F4E5374726520
:1067B800616D4C6F6748616E646C657200617070E2
:1067C800006E6F6E6500747261636500696E666F56
:1067D800007761726E006572726F720070616E6927
:1067E8006300616C6C000000000000000000000005
:1067F80043480D0039480D002F480D0025480D006D
:1068080019480D000D480D0001480D00F9470D000D
:10681800EF470D00E5470D00654B0D006666303308
:106828003A3A313A3130303100746831006D65736D
:106838006870756200776972696E6700706172735B
:1068480065207061636B657420256400000000009A
:1068580000000000FD4A0D00074B0D00114B0D0014
:106868001B4B0D00254B0D00314B0D003D4B0D0012
:10687800494B0D00514B0D005B4B0D00654B0D0056
:106888000000000000000000994D0D009B4D0D0018
:10689800252B3033643A253032750025592D256D66
:1068A8002D25645425483A254D3A2553257A00610B
:1068B800736374696D65000000000000000000004B
:1068C800A1550D00C5550D00814F0D00AB500D00B1
:1068D800794F0D00974F0D00B54F0D00CF4F0D00AC
:1068E800F34F0D008F500D0091530D0031510D00E5
:1068F800B1520D00614F0D0037550D0035520D0096
:1069080069510D0065550D00D5500D006F4F0D00F4
:1069180011510D00754F0D00D14F0D00F0FFFFFF15
:1069280000000000EB4F0D00000000000000000018
:10693800EF550D0013560D001F560D00454C0D0068
:10694800FB550D0007560D0001560D000D560D00A4
:10695800F1550D00F5550D00000000000000000085
:10696800F5560D0039570D0013570D00454C0D0015
:106978000D570D00F7560D00FF560D0033570D004B
:1069880007570D00F1560D00000000000000000040
:106998002F580D0025580D001B580D00D1570D001C
:1069A8000F580D0003580D00F7570D00EF570D0055
:1069B800E5570D00DB570D00654B0D0053756E4D07
:1069C8006F6E54756557656454687546726953618E
:1069D800744A616E4665624D61724170724D6179AB
:1069E8004A756E4A756C4175675365704F63744E8E
:1069F8006F76446563252E337320252E3373253334
:106A08006420252E32643A252E32643A252E3264CB
:106A18002025640A00002020202020202020202873
:106A2800282828282020202020202020202020203E
:106A38002020202020208810101010101010101076
:106A480010101010101004040404040404040404B6
:106A58001010101010101041414141414101010135
:106A6800010101010101010101010101010101010E
:106A7800011010101010104242424242420202021B
:106A880002020202020202020202020202020202DE
:106A9800021010101020000000000000000000008C
:106AA80000000000000000000000000000000000DE
:106AB80000000000000000000000000000000000CE
:106AC80000000000000000000000000000000000BE
:106AD80000000000000000000000000000000000AE
:106AE800000000000000000000000000000000009E
:106AF800000000000000000000000000000000008E
:106B0800000000000000000000000000000000007D
:106B1800000000000000000000000000000000006D
:106B2800000000000000000000000000000000005D
:106B3800000000000000000000000000000000004D
:106B4800000000000000000000000000000000003D
:106B5800000000000000000000000000000000002D
:106B6800000000000000000000000000000000001D
:106B78000000000000000000430000001F000000AB
:106B88001C0000001F0000001E0000001F00000085
:106B98001E0000001F0000001F0000001E00000073
:106BA8001F0000001E0000001F0000001F00000062
:106BB8001D0000001F0000001E0000001F00000054
:106BC8001E0000001F0000001F0000001E00000043
:106BD8001F0000001E0000001F000000545A00475C
:106BE8004D54002531305B5E302D392C2B2D5D2521
:106BF8006E004D256875256E2E256875256E2E2527
:106C08006875256E002F256875256E3A25687525E7
:106C18006E3A256875256E0061410D00A9460D0084
:106C2800D5470D00B14A0D00314C0D007D4D0D00CA
:106C3800854E0D004D4F0D0039580D0021590D009E
:106C480071590D00355A0D00B95A0D003D5B0D0004
:086C5800000000000000000034
:106C6000B7680D001D6A0D0000000000206B0D00CC
:106C7000406B0D00606B0D00000000000000000084
:106C80000000000000000000806B0D00000000000C
:106C900000000000000000000000000000000000F4
:106CA00000000000000000000000000000000000E4
:106CB00000000000000000000000000000000000D4
:106CC000000000000000000000E40320E76B0D005E
:106CD000E76B0D0001000000000000004A0000000A
:106CE00000000000000000000000000000000000A4
:106CF00000000000000000004A000000000000004A
:106D00000000000000000000000000000000000083
:086D100000000000ECE7032085
:106D1800FFFFFFFF00000102030405060708090A38
:106D28000B0C0D0E0F101112131415161718191A33
:086D38001B1C1D1E1F2028007A
:046D4000785634123B
:04000003D0004018D1
:00000001FF
