:02000002D0002C
:1040000000400D0014700D00000006000E000501B8
:0840100004014E040000000051
:10401800A4690D0009480A49884208B505D0094A2B
:10402800824202D0121A02F0A8F80748074A002173
:10403800121A02F0ADF8014808BD00BFF8E30320EA
:10404800306F0D00B4E40320B4E40320F0E703204C
:1040580070B501F09BFD074C074BE41AA408002536
:104068001E46A54204D056F8253098470135F8E792
:1040780070BD00BF306F0D00FC6E0D0000F058B829
:1040880008B500F069F8BDE8084001F04DBD00F042
:10409800C5BA00F0C3BA00F0C9BA00F0C7BA0078D0
:1040A800B0FA80F0400970470123037070470000A0
:1040B8007FB51B4C1B4D22781B4EFF2A03D10023D2
:1040C80023702A700BE02A78FF2A4FF0000303D1EF
:1040D80023702B70327003E0FF2222702B70337034
:1040E800012000F0ADFF32782978207800F0B8FF81
:1040F80001F0CEFC044601F0A8F80146684601F03C
:1041080061F80099204600F049FF684600F0E6FF94
:1041180001F0BEFC054900F054FF04B070BD00BFBB
:10412800F8E30320B9E40320B8E40320B8690D00DC
:1041380008B501F0ADFC4FF4E13101F09DFC034AF4
:1041480003490448BDE8084000F044BDB9400D00EB
:10415800CA690D00D0E40320704700F079B8000068
:1041680008B5024B1B685B68019308BD4802030051
:1041780008B5024B1B689B68019308BD4802030001
:1041880008B5024B1B68DB68019308BD48020300B1
:1041980008B5024B1B681B69019308BD4802030060
:1041A80008B5024B1B685B69019308BD4802030010
:1041B80008B5024B1B681B6B019308BD480203003E
:1041C80008B5024B1B685B6C019308BD48020300ED
:1041D80008B5024B1B68DB6C019308BD480203005D
:1041E80008B5024B1B685B6D019308BD48020300CC
:1041F80008B5024B1B68DB6E019308BD480203003B
:1042080008B5024B1B685B68019308BD18020300E0
:1042180008B5024B1B689B68019308BD1802030090
:1042280008B5024B1B685B69019308BD18020300BF
:1042380008B5024B1B68DB69019308BD180203002F
:1042480008B5024B1B689B6D019308BD180203005B
:1042580008B5024B1B681B68019308BD2C020300BC
:1042680008B5024B1B681B69019308BD6C0203006B
:1042780008B5024B1B685B69019308BD6C0203001B
:1042880008B5024B1B689B69019308BD6C020300CB
:1042980008B5024B1B685B6D019308BD6C020300F7
:1042A80008B5024B1B689B6D019308BD6C020300A7
:1042B80008B5024B1B685B69019308BD64020300E3
:1042C80008B5024B1B689B69019308BD6402030093
:1042D80008B5024B1B681B6A019308BD6402030002
:1042E80008B5024B1B685B6A019308BD64020300B2
:1042F80008B5024B1B689B6A019308BD6402030062
:1043080008B5024B1B689B68019308BD680203004F
:1043180008B5024B1B68DB68019308BD68020300FF
:1043280008B5024B1B685B68019308BD380203009F
:1043380008B5024B1B689B69019308BD380203004E
:1043480008B5024B1B68DB69019308BD38020300FE
:1043580008B5024B1B68DB6A019308BD38020300ED
:1043680008B5024B1B685B6B019308BD380203005C
:1043780008B5024B1B689B6B019308BD380203000C
:1043880008B5024B1B68DB69019308BD30020300C6
:1043980008B5024B1B681B68019308BD3C0203006B
:1043A80008B5024B1B68DB68019308BD3C0203009B
:1043B80008B5024B1B681B69019308BD3C0203004A
:1043C80008B5024B1B685B69019308BD3C020300FA
:1043D80008B5024B1B689B69019308BD3C020300AA
:1043E80008B5024B1B68DB69019308BD3C0203005A
:1043F80008B5024B1B689B6A019308BD3C02030089
:1044080008B5024B1B681B68019308BD4C020300EA
:1044180008B5024B1B685B68019308BD4C0203009A
:1044280008B5024B1B681B69019308BD4C020300C9
:1044380008B5024B1B685B69019308BD4C02030079
:1044480008B5024B1B689B69019308BD4C02030029
:1044580008B5024B1B68DB69019308BD4C020300D9
:1044680008B5024B1B681B6A019308BD4C02030088
:1044780008B5024B1B685B68019308BD6002030026
:1044880008B5024B1B689B68019308BD60020300D6
:1044980008B5024B1B68DB68019308BD6002030086
:1044A80008B5024B1B689B69019308BD60020300B5
:1044B80008B5024B1B68DB69019308BD6002030065
:1044C80008B5024B1B681B6D019308BD6002030011
:1044D80008B5024B1B681B68019308BD2002030046
:1044E80008B5024B1B685B68019308BD20020300F6
:1044F80008B5024B1B689B6D019308BD20020300A1
:1045080008B5034B1B68D3F88830019308BD000039
:104518002002030008B5034B1B68D3F894300193BD
:1045280008BD00002002030008B5034B1B68D3F840
:10453800A430019308BD00002002030008B5024B17
:104548001B689B68019308BD4402030008B5024B31
:104558001B685B69019308BD4402030008B5024B60
:104568001B681B6B019308BD4402030008B5024B8E
:104578001B68DB6B019308BD4402030008B5024BBE
:104588001B685B68019308BD4002030008B5024B35
:104598001B689B68019308BD4002030008B5024BE5
:1045A8001B68DB68019308BD4002030008B5024B95
:1045B8001B681B69019308BD4002030008B5024B44
:1045C8001B685B69019308BD4002030008B5024BF4
:1045D8001B689B69019308BD4002030008B5024BA4
:1045E8001B68DB69019308BD4002030008B5024B54
:1045F8001B681B6A019308BD4002030008B5024B03
:104608001B681B6B019308BD4002030008B5024BF1
:104618001B685B6B019308BD4002030008B5024BA1
:104628001B681B68019308BD1C02030008B5024BF8
:104638001B685B68019308BD1C02030008B5024BA8
:104648001B689B68019308BD1C02030008B5024B58
:104658001B681B69019308BD1C02030008B5024BC7
:104668001B689B69019308BD1C02030008B5024B37
:104678001B68DB6A019308BD1C02030008B5024BE6
:104688001B681B6B019308BD1C02030010B58368EF
:10469800044613B1032201469847204610BD002264
:1046A80011464068FFF7A2BF002211464068FFF795
:1046B800ADBF00224068FFF7A1BF002281F00101D1
:1046C8004068FFF78BBF00231A4619464068FFF77A
:1046D8007DBF00231A4619464068FFF76FBF0022C6
:1046E80011464068FFF762BF002211464068FFF795
:1046F8004DBF002202214068FFF750BF00231A4631
:104708004068FFF73BBF0000024B03225A60024A91
:104718001A607047BCE40320E0690D00704710B5CB
:104728000446FFF7B8FC204610BDF0B5037D062B04
:104738008DB00E4600F104074FF0000402D000F1DE
:10474800080518E00CAD394605F8304D2F232A46E8
:104758000A20FFF7ADFD284601F05CFD33680246EC
:10476800DB682946304698470FE024B12E213046B1
:1047780000F018FC044415F8011D0A22304600F028
:1047880057FCBD420444F0D120460DB0F0BD0000F6
:1047980010B5054B0446112240F8043B002101F0F6
:1047A800F7FC204610BD00BF146A0D000346074AF7
:1047B80010B543F8042B01F1100251F8044B43F8EB
:1047C800044B9142F9D10A781A7010BD146A0D0091
:1047D800037D042B01D1406808E0062B0AD1436809
:1047E80053B1836843B1C36833B10069003018BF5F
:1047F80001207047002070471846704710B59DF893
:10480800084044EA032343EA024242EA01610423DE
:104818004160037510BD37B50D788B784A78C97833
:1048280000912946FFF7EAFF03B030BD0068FFF7A3
:10483800CFBC0000014B024A1A607047C4E4032051
:10484800D56A0D0010B501230374836804460BB1C3
:10485800C06806E0006828B183680BB901F0F1F977
:10486800C3689847012363740020BDE81040FFF730
:10487800BFBC002211464068FFF7B8BE00221146AF
:104888004068FFF7C3BE00224068FFF7B7BE0022AA
:1048980081F001014068FFF7A1BE00231A461946BE
:1048A8004068FFF793BE00231A4619464068FFF791
:1048B80085BE002211464068FFF778BE00221146E7
:1048C8004068FFF763BE002202214068FFF766BE1A
:1048D80000231A464068FFF751BE38B5054678B13F
:1048E800046844B1A3681BB10322214620469847B7
:1048F8002046FFF7D0FB2846BDE83840FFF7CBBB82
:1049080038BD10B103685B681847704710B5036875
:104918000446BBB15868FFF72BFC78B923685A7C6A
:1049280012B95868FFF734FC23685868FFF738FC59
:1049380020680023236028B1FFF7CFFF206808B163
:10494800FFF7CBFF204610BD38B50B4B036004467C
:10495800D0F8CC0108B1FFF7A0FBD4F8C4512DB1B1
:104968002846FFF7D3FF2846FFF795FBA06808B154
:10497800FFF7C7FF204638BD086B0D002DE9F84F3B
:104988000B9F9DF828B00646884691469A460446ED
:104998000025236C4B4529D1636C534526D194F8E7
:1049A80048305B4522D14021404601F050FC414649
:1049B8000246204601F036FCC0B96FB10C213846DA
:1049C80001F045FC024638B1582303FB056039461F
:1049D800493001F027FC04E0582000FB056595F8F4
:1049E8004900B0FA80F04009BDE8F88F0135052D7F
:1049F80004F15804CDD10020BDE8F88F2DE9F04F1F
:104A080085B007469DF838A00F9E0196CDF800A006
:104A1800894602920393FFF7B1FF00283CD1044670
:104A2800582303FB0475D5F84080B8F1000F2ED148
:104A38004021484601F00BFC494683460246284679
:104A480001F09BFBCBF14002414605EB0B0001F066
:104A58009FFB029B2B64039B6B6485F849802EB1F6
:104A68000C21304601F0F3FB054600E0354658209E
:104A7800444338193C442A4631464930254401F01C
:104A88007CFB002085F8490084F848A005E0013443
:104A9800052CC6D1024800E0002005B0BDE8F08F23
:104AA800FCFEFFFF07B5002301930093FFF7A6FF65
:104AB80003B05DF804FB2DE9F341044608460D46B2
:104AC800904601F0A7FB04F5DC760746236CABB1F2
:104AD8004021204601F0BBFB874202460BD3294602
:104AE800204601F03BFB30B9009043462A46214658
:104AF8005820FFF719FD5834B442E7D102B0BDE899
:104B0800F081000030B58DB004461122002101A8C3
:104B180001F03EFB062301AA09498DF814300A204A
:104B2800FFF7CEFB07AD01A906A8FFF73FFE0FCDA3
:104B380004340FC42B68237000200DB030BD00BFB3
:104B4800346B0D0030B5044689B000F5E070FFF70E
:104B58006DFE236883BB4C20FFF799FA054608B120
:104B680000F026FE2068256008B1FFF7CAFE20681D
:104B780020B300224FF49A6100F049FE08A90025ED
:104B880001F8195D1148FFF76BFB20689DF80720B5
:104B9800036849F269011B6A984702A8FFF7F8FD04
:104BA80002A8FFF7AFFF002804DB02A9206800F085
:104BB80098FE04E0054602E0002500E0044DD4F824
:104BC800C001FFF70DFB284609B030BD416B0D0051
:104BD800FCFEFFFF2DE9F341044600F5E0700F46A7
:104BE8009046FFF723FED4F8BC61002E39D128493E
:104BF800042001F015F8054640B32549142001F0BA
:104C08000FF828B10674066046608660C660467470
:104C18002860A8B11F4B83602B681F49DC60286897
:104C28004FF440638DE8090003221C4B0430FFF762
:104C380097FA28B92B681B7C43B9FFF7A1FAF9E763
:104C4800286800232B6008B1FFF747FED4F8BC6141
:104C5800C4F8BC512EB13046FFF758FE3046FFF776
:104C68001AFA2046FFF76EFF002807DB424639464E
:104C7800201DFFF717FF00EAE07500E00546D4F8AD
:104C8800C001FFF7ADFA284602B0BDE8F08100BFC9
:104C9800A06C0D00B94D0D00456B0D004D480D0081
:104CA8002DE9F041054600F5E0768AB03046FFF779
:104CB800BDFD2C68D5F8C001FFF792FA002C63D02F
:104CC800D5F8C43163B12368D5F8C4111F6B2046E9
:104CD8004FF47A734FF49A62B847041E13DC56E017
:104CE8002D494FF49A6000F0AAFFD5F8C431C5F8F1
:104CF800C40113B11846FFF7D0F9D5F8C431002B19
:104D0800E1D1264844E02023254A0293009200235B
:104D1800019402AA234903930120FFF7D1FBD5F898
:104D2800C4315F1C1B786BBB013C2146384601F03F
:104D38008EFA38B3241A002C07EB000822DD3B5CFE
:104D480003BB013C0ED008F101082146404601F0A2
:104D58007EFA241A002C15DD18F8003093B9012CBE
:104D680002D00FE0DFF844803046FFF75FFD42468F
:104D78003946281DFFF79FFED5F8C001FFF730FA26
:104D8800002005E0084803E06420FFF741FA2046C8
:104D98000AB0BDE8F08100BFA06C0D00FCFEFFFF6B
:104DA800546B0D004D6B0D00E8FEFFFF366A0D00D9
:104DB80008B504462046FFF773FFFBE738B50D4CEE
:104DC8000D4B23600025022304F5E4706360A560A1
:104DD800C4F8C451C4F8C851FFF7F2F9074BC4F836
:104DE800CC5123602046064A0649BDE8384000F009
:104DF80009BF00BFC8E403206C6B0D00086B0D00F1
:104E0800B4E4032051490D0000231A464068FFF717
:104E1800B5BB002202214068FFF7C0BB0022114643
:104E28004068FFF7B3BB002211464068FFF7BEBBDE
:104E380000231A4619464068FFF7C0BB00231A46EC
:104E480019464068FFF7C2BB002281F001014068A3
:104E5800FFF7C4BB00224068FFF7D0BB0022114611
:104E68004068FFF7D3BB002211464068FFF7BEBB7E
:104E78002DE9F043002495B016460D460746FFF786
:104E880087FC214620220CA8009401F081F94023D8
:104E98000C9321466B460CAA3046FFF739FA0446B4
:104EA800002844D1024601216868FFF77FFB0221F0
:104EB800804622466868FFF779FB009E81462146B6
:104EC800002E34D0002932D17368022B02D00A2B6D
:104ED80009D02AE0B8F1000F27D0716938460431AB
:104EE800FFF799FC20E0B9F1000F1ED07469112278
:104EF80001A801F04DF906238DF8143001AD04F135
:104F080008031834186859682A4603C20833A342AC
:104F18001546F7D101A906A807ADFFF747FC0FCD45
:104F28003C1D0FC42B6823700121F669C8E700985F
:104F3800FFF7E6F9384615B0BDE8F083024B034A9F
:104F48001A6000225A60704798E603206C6B0D00C7
:104F5800F8B506460D468F180024BD420CD03368BC
:104F680015F8011B9B6830469847002801DB04446C
:104F7800F3E7002C08BF04462046F8BD70B5054687
:104F88000C46084649B101F045F92B68024621460E
:104F98002846DB68BDE87040184770BD08B5FFF7C4
:104FA800EDFF08BD03689B68184738B50D21054615
:104FB800FFF7F8FF0A2104462846FFF7F3FF2044CD
:104FC80038BD38B50546FFF7D9FF04462846FFF730
:104FD800ECFF204438BD30B58BB00B4600218DF86E
:104FE8002410012A98BF0A220DF12304B3FBF2F51D
:104FF80005FB123303F0FF03092B94BF303337331B
:10500800DBB2214604F801392B46002DEED1FFF71B
:10501800B5FF0BB030BD10B42AB903685DF8044B76
:105028009B68C9B21847D2B25DF8044BFFF7D3BFEB
:10503800FFF7F1BF10B50446FFF728FB204610BD67
:1050480010B50446FFF72CFA844208D01CB1BDE81D
:105058001040FFF715BABDE81040FFF719BA10BDA8
:1050680070B505460E461446FFF71AFA50B144EAE1
:10507800062040EA0540FFF7FBF9E720BDE870404D
:10508800FFF716BA70BD00000348044A044900231C
:10509800836000F0B7BD00BFA0E60320B4E403209E
:1050A8003D500D00704710B50446FEF7F4FF20464A
:1050B80010BD000070B5084B0360044600250E467D
:1050C80040F80C5FFFF774F830462671FFF758F97F
:1050D800A560204670BD00BFA06B0D0010B504464A
:1050E8000068FFF7A3FA204610BD10B50446006813
:1050F80008B1FFF79BFA00232360A360636010BD2B
:1051080038B504460D4600680131FFF797FA10B12B
:1051180084E82100012038BD10B50368044613B1A6
:1051280043688B4207D22046FFF7EAFF20B1A36805
:105138000BB922681370012010BD70B50E461146D8
:1051480004461546FFF7E8FF18B92046FFF7CDFFDC
:1051580009E02A463146A560206801F00EF8226869
:10516800A3680021D154204670BD38B500230446F9
:1051780003604360836003730D4639B1084601F04C
:1051880049F8294602462046FFF7D7FF204638BD92
:10519800044B00204FF6FF72187058809A80FFF772
:1051A8009FB900BFB0E6032008B50020FFF7D6F985
:1051B80028B1FFF7CBF980F00100C0B208BD01208B
:1051C80008BD000037B50E4B1B6819440D4B1B6812
:1051D800044602A8194440F8041D00F0C7FE00F078
:1051E8007BFE054601F016F82844002300F8013C30
:1051F80029462046FFF7B9FF204603B030BD00BF5F
:10520800C0E60320BCE6032010B50020FFF718F81D
:10521800044668B9FFF75CF901280BD12046FFF76F
:1052280067F938B9FFF7C0FF30B9FFF787F9F9E731
:10523800012010BD002010BDFFF7B6FF0020FEF7CB
:10524800FFFF003018BF012010BD08B5FFF7DCFFD5
:10525800BDE80840FEF7ECBF024B1A68024B1A6023
:10526800704700BFFCE30320B8E6032010B40468CD
:10527800246BA4465DF8044B604703689B6C184791
:10528800808E7047028FC08E101A704713B502AB1C
:10529800026803F8011DD46819460122A04702B02C
:1052A80010BD10B503681B690446984728B1E38E02
:1052B800E26B591CE186D05C10BD4FF0FF3010BD89
:1052C80010B503681B690446984718B1E38EE26B72
:1052D800D05C10BD4FF0FF3010BD704710B40346CE
:1052E8000846DC6BD98E1A8F0368521ADB68214492
:1052F8005DF8044B1847A0F11000FFF7EFBFF0B5B9
:1053080003688DB01C265B6A04460F46154698470D
:1053180001233246002105A8029300F039FF8DF8D9
:10532800146038460A268DF81560FEF7E1FF112251
:10533800ADF8160002213046FFF71AF80028606120
:1053480024DB0422009202AB40F6FF71FEF7F0FF67
:10535800E0B995B10390ADF8100003A9E8B2FEF7E3
:1053680087FF98B90623009341F20B0203AB40F67E
:10537800FF716069FEF7DCFF40B91C2205A960696E
:10538800FEF7CEFF10B96564012004E023682046CB
:105398005B6A984700200DB0F0BD10B5044640691F
:1053A800002801DBFEF7CCFF4FF0FF3363610023D9
:1053B800E386238710BD38B5C36B0546C08E13B18D
:1053C8002C6C241A00E01C46944228BF144622463E
:1053D800184400F0D2FEEB8E2344EB86204638BDFD
:1053E80070B503681B6904460E461546984788B190
:1053F800236820461B699847E38EE16B8542A8BF66
:10540800054619442A46304600F0B7FEE38E2B4481
:10541800E38601E04FF0FF35284670BD70B50446BD
:10542800054B44F8043B01F1200506460FCD0FC497
:105438002B682370304670BD146A0D00F0B5944691
:10544800026889B0976A0A4A02921D1D8E4606466E
:105458000FCD03AC0FC42B682370BDF83830009310
:10546800624602AB71463046B84709B0F0BD00BF8E
:10547800146A0D00F0B50368B0F836E09F6A0D4B6A
:1054880089B000F12006044602930FCE03AD0FC584
:1054980033682B70A38E0093724602ABE16B2046F3
:1054A800B84723680546DB6920469847284609B06F
:1054B800F0BD00BF146A0D00F0B54378022B8DB023
:1054C80005460C46174601D1011D33E00A2B35D19C
:1054D8001122002101A800F05BFEAB6843B9EB681C
:1054E80033B94FF6FF702E69FEF7F2FE86421FD0E1
:1054F80005F1080301AE05F1180E1868596832461F
:1055080003C2083373451646F7D1062301A906A836
:1055180007AE8DF81430FFF749F90FCE04340FC4E5
:105528003368237057B16888FEF7DAFE388005E0E3
:1055380005F114012046FFF76EF9F3E70DB0F0BD51
:105548002DE9F0418EB00EAB0025064617460846F9
:1055580043F8345D2A462946FEF7DAFE00281FDBA9
:10556800019BFBB15B69EBB102A8FFF711F9019B45
:105578002A46586902A9FFF79FFF02A8FFF728F9F2
:1055880080B1336803ADD3F838800B4B08930FCD47
:1055980009AC0FC42B6823703A4608A93046C047A7
:1055A800044601E04FF0FF340198FEF7A9FE2046BB
:1055B8000EB0BDE8F08100BF146A0D002DE9F04778
:1055C800D0F81480B8F1000F8CB005460C46174689
:1055D800994600DB11B94FF0FF3035E04FF01C0A57
:1055E80005AE52460021304600F0D2FDCDF808A0A5
:1055F800B9F1000F14D04FF47A72B9FBF2F10391AC
:1056080002FB11914A4308230492009341F20602D7
:1056180003AB40F6FF714046FEF78AFE08B113E07F
:10562800082002AB01932146034600963A46686972
:10563800FEF78EFE041E06DB05F1340205F11C019F
:105648003046FFF739FF20460CB0BDE8F08738B583
:10565800054614462B7D062B084611D11C231370D2
:105668000A235370FEF744FE083424F8060C2B1D59
:10567800143553F8042B44F8042BAB42F9D138BD48
:10568800042B0AD11023137002235370FEF730FE47
:1056980060806868FEF71CFE606038BD2DE9F04345
:1056A8008BB003AC1C25994606460F469046002150
:1056B8002A46204600F06CFD2246BDF848104846B0
:1056C800FFF7C5FF9DF80D3043B18DE8300000238A
:1056D800424639467069FEF743FE01E04FF0FF305D
:1056E8000BB0BDE8F083F0B591B00C46064600213A
:1056F800154609A81C221F4600F04AFD09AA0021E8
:105708002046FFF7A4FF9DF82530022B2ED1002359
:1057180005930A9B0493DDB102A92846FEF7B0FD64
:10572800B0B910A941F8340D0298FEF7B1FD60B97F
:10573800039B53B1DA6812685178022903D1526881
:105748000AB1059201E01B68F3E70398FEF7A8FD8C
:10575800002F4FF00803009318BF032204AB08BFC3
:10576800042200213046FEF7E3FD1EE00A2B1AD181
:1057780004AC14220021204600F00AFD0BAB0FCB2D
:10578800002F84E80F004FF01403009318BF0C2279
:10579800234608BF0D22292130460895FEF7C8FD8B
:1057A80000EAE07001E04FF0FF3011B0F0BD0000FA
:1057B80038B54FF47A7383600B4B03F108026C33EE
:1057C800002503614FF0FF330446456002604361E2
:1057D8001C30FEF7DDFF4FF40073E5862587E5638F
:1057E80023646564204638BDD06B0D0010B590F871
:1057F800483004461BB1C06B08B1FEF74CFC0023CF
:10580800E36384F848302364E386238710BD70B5CA
:10581800044616460D46FFF7E9FF0023E6632364B6
:105828003EB935B12846FEF734FC0123E06384F81D
:105838004830E36B03B12564206C003018BF0120A9
:1058480070BDF8B51746C26B05460C461AB9016C0F
:1058580009B1FFF7DCFF04340FCC05F120060FC6B1
:10586800236833700023AF86EB862B87286CF8BD3E
:1058780070B5C26B04460E461AB9016C09B1FFF740
:10588800C6FFE16B0022E286228749B1226C3AB159
:10589800236820461D6B3346A8470028C8BF2087C9
:1058A800236820461B69BDE87040184710B5074BB0
:1058B80003F108026C33044602600361FFF76DFDD3
:1058C8002046FFF793FF204610BD00BFD06B0D00A8
:1058D80010B50446FFF7EAFF2046FEF7DCFB20463A
:1058E80010BD02464069002804DB012392F84420D9
:1058F800FFF7F9BE4FF0FF307047704741747047AB
:10590800007CFEF775BD007CFEF752BD007CFEF7FB
:105918005FBD007CFEF754BD007CFEF761BD10B58D
:105928000446FEF7B8FB204610BD70B5457C04461A
:105938000E4625B9007CFEF75BFD002805DD3146E3
:10594800207CBDE87040FEF72BBD284670BD0000E6
:1059580010B5044608461146002262604FF47A7278
:10596800A260054A22600122207462741A46FEF77A
:105978000FFD204610BD00BF486C0D00F8B5194C4E
:1059880025684DB98420FEF782FB064618B18422AB
:10599800294600F0FDFB2660134D2E684EB9842081
:1059A800FEF775FB074618B18422314600F0F0FB7C
:1059B8002F600E4F396811F0010611D13846FEF7F5
:1059C8006EFB68B122682B6809483146FFF7C0FFB3
:1059D8003846FEF769FB074A0749054800F012F9FF
:1059E8000348F8BDE0E60320D8E60320DCE6032000
:1059F800C4E60320B4E4032003590D004174704742
:105A080070470021007CFEF71BBD0121007CFEF7DA
:105A180017BD007CFEF70CBD007CFEF701BD38B554
:105A28000446007C0D46FEF703FD002801DC607C7F
:105A380020B12946207CFEF70BFD012038BD007CF3
:105A4800FEF70EBD10B50446FEF725FB204610BD37
:105A580010B50446002363604FF47A73A360054BC6
:105A6800236001230846217463741146FEF7C8FCBD
:105A7800204610BD786C0D000022007CFEF7C8BCE3
:105A880010B514220446002100F082FB204610BD08
:105A980030B50E4D87B001A8FFF7F2FF296811F065
:105AA800010410D12846FEF7FAFA60B101AA21468E
:105AB8000748FFF7CDFF2846FEF7F6FA054A0649DC
:105AC800034800F09FF8024807B030BDE4E6032021
:105AD800E8E60320B4E40320095A0D0008B50F4B8B
:105AE80033B1FFF7D5FF03681B69984700280DDC21
:105AF8000B4B33B1FFF742FF03681B699847002837
:105B080007DC084B43B1AFF3008008BDAFF300805A
:105B1800EEE7AFF30080F4E708BD00BF0000000027
:105B2800000000000000000008B5FFF7D7FFFEF7EF
:105B380077FB014B186008BD00E7032007B5002379
:105B480000931A466FF07701FEF7E4FC03B05DF8A6
:105B580004FB000007B543880A2B08D0502B09D155
:105B6800094B1B683BB103B05DF804EB1847FFF71E
:105B7800E5FF06E0002300931A466FF07701FEF771
:105B8800C9FC03B05DF804FBFCE6032010B5FEF782
:105B980037FB044600F004FB074B13B12046AFF374
:105BA800008000210448FEF7E1FC00210348BDE81D
:105BB8001040FEF7A5BC00BF000000005D5B0D00B3
:105BC80070B50C4C0C4E0D4D00212046FFF772FAB3
:105BD80020460B4C3246294600F014F80121204695
:105BE800FFF768FA324629462046BDE8704000F0C3
:105BF80009B800BF04E70320B4E40320AD500D004A
:105C080014E703200B460146184600F0A1B900002E
:105C1800024B1868BFF35F8F704700BF24E703206B
:105C280010B5002814BF044601242046FEF7F6FCF0
:105C380020B9FFF7EDFF08B18047F6E710BDFFF781
:105C4800EFBF08B5FEF712FD244B1A68D0075CBFFA
:105C580001221A60224B1A68D1075CBF01221A6020
:105C6800204B1A68D2075CBF01221A601E4B1A68C3
:105C7800D0075CBF01221A601C4B1A68D1075CBFB1
:105C880001221A601A4B1A68D2075CBF01221A60F7
:105C9800184B1A68D0075CBF01221A60164B1A68A5
:105CA800D1075CBF01221A60144B1A68D2075CBF87
:105CB80001221A60124B1A68D0075CBF01221A60D1
:105CC800104B1A68D1075CBF01221A600E4B1A6884
:105CD800D2075CBF01221A60704700BF54E7032057
:105CE80050E703204CE7032048E7032044E703205C
:105CF80040E703203CE7032038E7032034E703208C
:105D080030E703202CE7032028E70320184B1A6804
:105D1800D1075CBF01221A60164B1A68D2075CBF14
:105D280001221A60144B1A68D0075CBF01221A605E
:105D3800124B1A68D1075CBF01221A60104B1A680F
:105D4800D2075CBF01221A600E4B1A68D0075CBFED
:105D580001221A600C4B1A68D1075CBF01221A6035
:105D68000A4B1A68D2075CBF01221A60704700BF4D
:105D780074E7032070E703206CE7032068E703203B
:105D880064E7032060E703205CE7032058E703206B
:105D9800184B1A68D1075CBF01221A60164B1A68A3
:105DA800D2075CBF01221A60144B1A68D0075CBF87
:105DB80001221A60124B1A68D1075CBF01221A60CF
:105DC800104B1A68D2075CBF01221A600E4B1A6882
:105DD800D0075CBF01221A600C4B1A68D1075CBF60
:105DE80001221A600A4B1A68D2075CBF01221A60A6
:105DF800704700BF94E7032090E703208CE7032057
:105E080088E7032084E7032080E703207CE703205A
:105E180078E70320244B1A68D0075CBF01221A6078
:105E2800224B1A68D1075CBF01221A60204B1A68FE
:105E3800D2075CBF01221A601E4B1A68D0075CBFEC
:105E480001221A601C4B1A68D1075CBF01221A6034
:105E58001A4B1A68D2075CBF01221A60184B1A68DD
:105E6800D0075CBF01221A60164B1A68D1075CBFC5
:105E780001221A60144B1A68D2075CBF01221A600B
:105E8800124B1A68D0075CBF01221A60104B1A68BF
:105E9800D1075CBF01221A600E4B1A68D2075CBF9B
:105EA80001221A60704700BFC4E70320C0E703203F
:105EB800BCE70320B8E70320B4E70320B0E70320DA
:105EC800ACE70320A8E70320A4E70320A0E703200A
:105ED8009CE7032098E70320094B70B51C68256CE4
:105EE80006463DB91A20FEF799FB1A222064294676
:105EF80000F04EF9216C3046BDE8704000F002B861
:105F080064E4032010B50C4641690369826986B0D0
:105F180001F26C71049101680391416802918168F2
:105F28000191C1680091074903EB43030B440649FB
:105F380002EB42020A4420460449FEF787FB20464A
:105F480006B010BDB66C0D00A16C0D00DA6C0D002A
:105F580010B5054C13462CB10A4601460220AFF392
:105F6800008010BD204610BD0000000038B5074B6A
:105F78001C68E36B05461BB92420FEF74FFBE06362
:105F8800E16B2846BDE8384000F002B864E403201D
:105F98002DE9F0410C46804600F062FC2146074698
:105FA800404600F061FC466906F26C76B307044689
:105FB80005D1642296FBF2F302FB13634BB94FF44D
:105FC800C87596FBF5F305FB1365B5FA85F35B0910
:105FD80000E001235F4A302505FB032500F074FA31
:105FE80000F074FA5C4B1B68F3B17B689E4205D1E4
:105FF8003968D8F80030FA6941B90AE0304600F04B
:10600800BBF90028F4D14FF0FF330DE0934208DBD1
:1060180001E0934207DABA6B9342ACBF0023012335
:1060280002E0002300E001232362236A012B0CBF56
:10603800F96B396A4FF461633C2091FBF3F603FB7B
:106048001613616893FBF0F200FB12302368891A7B
:10605800A26861601B1A921B3B2B2360A26003DDC0
:10606800013161603C3B04E0002B03DA01396160D7
:106078003C33236063683B2B03DD0132A2603C3B69
:1060880004E0002B03DA013AA2603C336360A368A2
:10609800172B22DDE2690132E261A2690132062A88
:1060A800C8BF0022A261E268183B0132A3602369DD
:1060B800E26055F823108A4246DD01330C2B0CBFF1
:1060C80063692361A2EB0102E26001BF0133002290
:1060D8002261636108BFE26136E0002B34DAE269CD
:1060E800013AE261A269013A48BF0622A261E26868
:1060F8001833013AE260A36032BB2369013B01D443
:1061080023611DE00B23236163695A1E12F0030FFC
:10611800626103F26B7305D1642193FBF1F201FB19
:1061280012324AB94FF4C87193FBF1F201FB1233F2
:10613800B3FA83F35B0900E0012303F5B673E36167
:10614800236955F82330E36000F0BFF92046BDE825
:10615800F08100BF606E0D00E4E7032010B501393F
:106168000244904207D010F8013B11F8014FA342B6
:10617800F7D0181B10BD002010BD10B5431E0A44EF
:10618800914204D011F8014B03F8014FF8E710BD14
:1061980002440346934202D003F8011BFAE7704712
:1061A80038B5124B1C68A36B0546D3B91820FEF707
:1061B80035FA43F20E33A06303804AF6CD334380A9
:1061C80041F2342383804EF26D63C3804DF6EC6355
:1061D8000381052343810B23838101220023C0E926
:1061E8000423A36B00221D615A6138BD64E40320B7
:1061F80010F8012B11F8013B012A28BF9A42F7D069
:10620800D01A7047034611F8012B03F8012B002A16
:10621800F9D17047034613F8012B002AFBD1181A4D
:106228000138704730B582B1451E013915F8013F74
:1062380011F8014FA34206D1EC431444E04201D0C7
:10624800002BF3D11C46181B30BD104630BD10B5CD
:10625800034601448B4204D01A785C1C0AB12346D9
:10626800F8E7181A10BD00002DE9F04780463C48B1
:10627800D0F800900E46354615F8014B09EB04009E
:10628800407800F0080000F0FF0708B12E46F2E75A
:106298002D2C03D1B51C7478012703E02B2C04BFE7
:1062A8007478B51C13B1102B0AD153E0302C4FD1A0
:1062B800287800F0DF00582845D16C781023023583
:1062C8004FF0FF3C0026BCFBF3FC03FB0CFA6FEA23
:1062D8000A0A304609EB040E9EF801E01EF0040F8E
:1062E80001D0303C0BE01EF0030E1AD0BEF1010FB6
:1062F8000CBF4FF0370E4FF0570ECEEB0404A342FD
:106308000FDD002E08DB604506D801D1544503DCBB
:1063180003FB0040012601E04FF0FF3615F8014B62
:10632800D8E7002E07DA2223C8F800304FF0FF30F4
:106338002AB9BDE8F08707B1404272B106B1691EBB
:106348001160BDE8F0873024002BB9D10823B7E7E6
:106358000A23B5E7302CABD0B2E7BDE8F08700BF21
:1063680000E4032013460A46014602480068FFF786
:106378007BBF00BF64E403202DE9F74F044600F01B
:106388006FFA40F2B1739C4240F396806FF4F66363
:10639800E318A4F2B2729B1040F26D1505FB0235AA
:1063A800A4F26D726FF0630392FBF3F36FF4C862AB
:1063B8002B44A5184FF4C87295FBF2F51D446423CD
:1063C80094FBF2F794FBF3F602FB174703FB164620
:1063D80000F13803B7FA87FE019304F00303446021
:1063E8004FEA5E1E014600934FF0070C0B7A4A2BCA
:1063F8000ED14B69009AEC1802B906B927B93B2BA4
:10640800D4BF0023012300E000232344013B3FE0E5
:10641800442B02D14B692B443AE0009B2BB9002E48
:106428000CBFF0464FF0010800E0F046244BCC6862
:10643800302202FB0838A8F1040AA9460123A34226
:1064480004DA5AF804BF0133D944F8E709F1040320
:1064580093FBFCFBCBEBCB0A012CCAEB030A4B6981
:10646800B8BF012404F18044B3EB0A0A0B6904F1B4
:10647800FF3403F1FF3348BF0AF1070AC3EBC30334
:1064880058F824405344A34201DB073BFBE74B4445
:106498008C690C4A02FB03430C6A234441F81C3FF5
:1064A800019B9942A2D1C369826B9342ACBF00237E
:1064B80001230360012000E0002003B0BDE8F08F55
:1064C800606E0D008051010070477047014B1868DD
:1064D80000F002B864E403202DE9F04F8DB00746C0
:1064E80000F0BEF9B049B14E0446384600F0B0F9A4
:1064F800054660B9AE4BAF4A1860AF4B1860AF4B5A
:1065080030681A605A60FEF791F8356048E13168E2
:1065180079B93068FEF78AF82846FFF77BFE411CF8
:106528003846FEF7ABF8306048B12946FFF76AFEF7
:1065380005E0FFF75DFE002800F03281E9E72B78DF
:106548009F4AA0493A2B08BF01350AAE3346284670
:10655800FEF784F8002840F323810A9BEF18EB5CD0
:106568002D2B03D101374FF0FF3503E02B2B08BF4C
:10657800013701250DF1200A0DF11E0B4FF000081F
:106588000396CDF808A00196CDF800B0334607AAC7
:106598008D49ADF81E803846ADF82080FEF75EF8CC
:1065A800404540F3FD80BDF81E20BDF82030DFF8DF
:1065B80024923C2101FB0233BDF81C204FF4616199
:1065C80001FB02335D4325627C4D7D4B2B600A9BAA
:1065D8007C491F444A4633463846FEF73FF8404553
:1065E80008DC2B686B60724B226A1A60724BC3F826
:1065F8000080D5E00A9BC5F80490FD18FB5C2D2BA4
:1066080003D101354FF0FF3703E02B2B08BF0135CD
:1066180001270023ADF81C30ADF81E30ADF820304E
:106628000A930396CDF808A00196CDF800B033463A
:1066380007AA65492846FEF711F8002804DC236AF2
:10664800A3F56163E3630EE0BDF81E20BDF82030BA
:106658003C2101FB0233BDF81C204FF4616101FBB2
:1066680002335F43E7630A9B27461D444FF0000946
:106678002B782C2B08BF013595F80080B8F14D0F09
:1066880026D10DF12603029309AB009303960196D8
:1066980033460DF122024D492846FDF7DFFF032856
:1066A8007ED1BDF822104B1E0B2B79D8BDF82420C3
:1066B800531E042B74D8BDF82630062B70D887F8E3
:1066C8000880F9603A617B610A9B05EB03082AE0C0
:1066D800B8F14A0F06BF0135434644230A220BA9E5
:1066E80028460593FFF73EFEDDF82C80ADF826001E
:1066F8004545059B14D14D23B9F1000F07D12372ED
:106708000323E36002232361C4F814900BE084F8A8
:1067180024300B23A3620123E3620023236302E0F6
:1067280080B23B7278610223ADF81C300023ADF8CB
:106738001E30ADF820300A9398F800302F2B0BD17B
:106748000396CDF808A00196CDF800B0334607AA05
:106758001F494046FDF782FFBDF81E20BDF82030D6
:106768003C2101FB0233BDF81C204FF4616101FBA1
:106778000233BB610A9D09F10109B9F1020F4544D1
:1067880007F11C077FF474AF6068FFF7F5FD084B4D
:10679800226A1A60E36B9B1A074A18BF0123136029
:1067A8000DB0BDE8F08F00BFC06E0D00E0E703201C
:1067B800E8E70320C36E0D00E4E7032068E4032044
:1067C800D3E70320C76E0D00EA6E0D00D66E0D00EC
:1067D800E96E0D00C8E703202DE9F84F07468B4600
:1067E800904600F0D9F8194B1D689A463DB15C46B1
:1067F800234613F8012B42B13D2A1C46F8D13846EE
:1068080000F0CBF80020BDE8F88FCBEB0404A946D4
:1068180059F8040B0028F2D022465946FFF702FD2A
:1068280088B959F8043C1E191B5D3D2B0BD1DAF8C9
:106838000030ED1AAD103846C8F8005000F0ADF839
:10684800701CBDE8F88F4D46E1E700BFB0E40320B7
:1068580007B501AAFFF7C0FF03B05DF804FB00000D
:106868000048704770E403200268474BF0B592FB7C
:10687800F3F403FB1422002ABCBF02F5A83202F588
:10688800C0724FF4616004F52F2492FBF0F300FB13
:1068980013224FF03C00ACBF04F66C2404F66B24C2
:1068A8008B6092FBF0F300FB13224B600A60072316
:1068B800E21C92FBF3F3C3EBC303D31A8B61334B94
:1068C800334D94FBF5F503FB054448F6AC62B4FB85
:1068D800F2F2224440F2B457B4FBF7F3D21A2D482F
:1068E800B4FBF0F048F69466131AB3FBF6F634449A
:1068F80040F26D12B3FBF2F0B3FBF7F3E31A02FBBD
:106908001033992403EB83020232B2FBF4F20A2A11
:1069180004FB02F404F102064FF00504B6FBF4F49C
:1069280034BF02266FF0090616444FF4C87202FB02
:1069380005055F1C012E98BF0135B3F5997FA7EBBC
:10694800040702D3A3F5997214E0820705D16424E1
:10695800B0FBF4F204FB12024AB94FF4C872B0FB60
:10696800F2F402FB1400B0FA80F2520900E00122AE
:106978003B331A44A5F26C750023CA614D610E6160
:10698800CF600B620846F0BD805101004FC5FDFF86
:10699800B13A0200B03A0200704770471D400D003E
:1069A80059400D0085400D0089400D000000000091
:1069B8003A20526563656976696E67204576656E2B
:1069C800740067726F75702D6576656E74000000CF
:1069D800000000000000000005470D00FB460D0008
:1069E800F1460D00E7460D00DB460D00CF460D00D1
:1069F800C3460D00BB460D00B1460D00A7460D006D
:106A0800794E0D00000000000000000033470D0023
:106A180025470D0027470D0066006C6E00666E0066
:106A2800636F64650064657461696C000D0A002514
:106A38003031307520005D20002C200028293A20B4
:106A480000205B00636F6465203D200025690064B9
:106A5800657461696C73203D200062617564005340
:106A6800657269616C0053657269616C3100747993
:106A7800706500706172616D00636D640069640027
:106A8800686E64007374726D0066696C74006C766D
:106A98006C0061646448616E646C65720072656D57
:106AA8006F766548616E646C657200656E756D48D9
:106AB800616E646C657273004A534F4E537472650D
:106AC800616D4C6F6748616E646C657200617070CF
:106AD800006E6F6E6500747261636500696E666F43
:106AE800007761726E006572726F720070616E6914
:106AF8006300616C6C0000000000000000000000F2
:106B0800D9480D00CF480D00C5480D00BB480D0001
:106B1800AF480D00A3480D0097480D008F480D00A1
:106B280085480D007B480D00794E0D0066663033B0
:106B38003A3A313A3130303100746831006D65735A
:106B48006870756200776972696E67007061727348
:106B580065207061636B6574202564000000000087
:106B680000000000114E0D001B4E0D00254E0D00BB
:106B78002F4E0D00394E0D00454E0D00514E0D00A3
:106B88005D4E0D00654E0D006F4E0D00794E0D00E7
:106B98000000000000000000AD500D00AF500D00D7
:106BA800252B3033643A253032750025592D256D53
:106BB8002D25645425483A254D3A2553257A0061F8
:106BC800736374696D650000000000000000000038
:106BD800B5580D00D9580D0095520D00BF530D0042
:106BE8008D520D00AB520D00C9520D00E3520D003D
:106BF80007530D00A3530D00A5560D0045540D0075
:106C0800C5550D0075520D004B580D0049550D0026
:106C18007D540D0079580D00E9530D0083520D0085
:106C280025540D0089520D00E5520D00F0FFFFFFBD
:106C380000000000FF520D000000000000000000EE
:106C480003590D0027590D0033590D00594F0D00F8
:106C58000F590D001B590D0015590D0021590D0034
:106C680005590D0009590D00000000000000000042
:106C7800095A0D004D5A0D00275A0D00594F0D00A5
:106C8800215A0D000B5A0D00135A0D00475A0D00DA
:106C98001B5A0D00055A0D000053756E4D6F6E544A
:106CA80075655765645468754672695361744A61BD
:106CB8006E4665624D61724170724D61794A756EBA
:106CC8004A756C4175675365704F63744E6F7644AF
:106CD8006563252E337320252E33732533642025D1
:106CE8002E32643A252E32643A252E3264202564E9
:106CF8000A000020202020202020202028282828C2
:106D08002820202020202020202020202020202073
:106D180020202088101010101010101010101010C3
:106D280010101004040404040404040404101010D3
:106D3800101010104141414141410101010101017F
:106D4800010101010101010101010101010110100D
:106D58001010101042424242424202020202020253
:106D680002020202020202020202020202021010DF
:106D780010102000000000000000000000000000CB
:106D880000000000000000000000000000000000FB
:106D980000000000000000000000000000000000EB
:106DA80000000000000000000000000000000000DB
:106DB80000000000000000000000000000000000CB
:106DC80000000000000000000000000000000000BB
:106DD80000000000000000000000000000000000AB
:106DE800000000000000000000000000000000009B
:106DF800000000000000000000000000000000008B
:106E0800000000000000000000000000000000007A
:106E1800000000000000000000000000000000006A
:106E2800000000000000000000000000000000005A
:106E3800000000000000000000000000000000004A
:106E4800000000000000000000000000000000003A
:106E580000000000430000001F0000001C000000AC
:106E68001F0000001E0000001F0000001E000000A0
:106E78001F0000001F0000001E0000001F0000008F
:106E88001E0000001F0000001F0000001D00000081
:106E98001F0000001E0000001F0000001E00000070
:106EA8001F0000001F0000001E0000001F0000005F
:106EB8001E0000001F000000545A00474D540025D2
:106EC80031305B5E302D392C2B2D5D256E004D2524
:106ED8006875256E2E256875256E2E256875256EB4
:106EE800002F256875256E3A256875256E3A256840
:106EF80075256E0063410D0011470D003D480D00DA
:106F0800C54D0D00454F0D0091500D0099510D00D4
:106F180061520D00C95B0D00515C0D00155D0D003F
:086F2800995D0D001D5E0D00D6
:106F3000FF000000C76B0D00FA6C0D0000000000A0
:106F4000FC6D0D001C6E0D003C6E0D00000000007D
:106F50000000000000000000000000005C6E0D005A
:106F60000000000000000000000000000000000021
:106F70000000000000000000000000000000000011
:106F80000000000000000000000000000000000001
:106F900000000000000000000000000004E40320E6
:106FA000C36E0D00C36E0D00010000000000000064
:106FB0004A00000000000000000000000000000087
:106FC0000000000000000000000000004A00000077
:106FD00000000000000000000000000000000000B1
:0C6FE0000000000000000000ECE70320AF
:106FEC00FFFFFFFF00000102030405060708090A62
:106FFC000B0C0D0E0F101112131415161718191A5D
:08700C001B1C1D1E1F202800A3
:047014007856341264
:04000003D0004018D1
:00000001FF
